:020000040800F2
:10000000C8170020CD020008CF3200084B3100088D
:10001000CD3200082F1D00080D3800080000000038
:100020000000000000000000000000003502000891
:10003000671D000800000000790200086534000810
:10004000E7020008E7020008E7020008E7020008EC
:10005000E7020008E7020008E7020008E7020008DC
:10006000E7020008E7020008E7020008E7020008CC
:10007000E7020008E7020008311D0008E702000857
:10008000E7020008E7020008E7020008E7020008AC
:10009000E7020008E7020008E7020008E70200089C
:1000A000E7020008E7020008E7020008E70200088C
:1000B000E7020008E7020008F1340008E702000840
:1000C000E7020008E7020008E7020008E70200086C
:1000D000E702000801380008E7020008E70200080C
:1000E000E7020008E7020008E702000800F002F853
:1000F00000F090F80AA090E8000C82448344AAF132
:100100000107DA4501D100F085F8AFF2090EBAE82F
:100110000F0013F0010F18BFFB1A43F0010318473B
:10012000284F0000484F0000103A24BF78C878C11B
:10013000FAD8520724BF30C830C144BF04680C60ED
:10014000704700000023002400250026103A28BF35
:1001500078C1FBD8520728BF30C148BF0B60704739
:100160006E2900F04F82702900F09983662904F00F
:10017000A186652904F09E86672904F09B86612983
:1001800004F09A8603681B0A28BF41F080016929A0
:1001900000F0FC81642900F0F981752900F0F681F6
:1001A0006F2900F02683782900F06583E92900F0A3
:1001B000C182E42900F0BE82F52900F0BB82EF295C
:1001C00000F02383F82900F064830368DB0928BF6B
:1001D00041F08001632901F06780732901F06C8090
:1001E000E32901F07780F32901F07C80002070473B
:1001F0001FB501F0C9F804000020002104F044FEFE
:10020000401C60600020002104F028FEE0601FBD5B
:1002100010B510BD01F08AF81146FFF7E9FF03F0B1
:1002200029FB01F067F903B4FFF7F2FF03BC01F00B
:10023000AFF90000224B19680868B0E8F00F80F3AE
:100240000988BFF36F8F4FF0000080F311884EF0E4
:100250000D0E70470000000006480068006880F33B
:10026000088862B661B6BFF34F8FBFF36F8F00DFB0
:1002700000BF00BF08ED00E0EFF30980BFF36F8F10
:100280000F4B1A6820E9F00F106008B54FF05000CE
:1002900080F31188BFF34F8FBFF36F8F04F09AF88C
:1002A0004FF0000080F31188BDE808401968086825
:1002B000B0E8F00F80F30988BFF36F8F704700BF7D
:1002C0002C000020EFF305807047000009488047AC
:1002D00009480047FEE7FEE7FEE7FEE7FEE7FEE728
:1002E000FEE7FEE7FEE7FEE704480549054A064B40
:1002F00070470000ED340008ED000008C811002030
:10030000C8170020C8130020C81300207CB51D4664
:1003100016460C00009001D02044401E074B7B4441
:100320002A4669460190304600F085F905461CB121
:100330000020694600F092F928467CBD4503000084
:10034000032A40F2308010F0030C00F0158011F801
:10035000013BBCF1020F624498BF11F801CB00F8D9
:10036000013B38BF11F8013BA2F1040298BF00F82D
:1003700001CB38BF00F8013B11F0030300F02580EA
:10038000083AC0F0088051F8043B083A51F804CB11
:10039000A0E80810F5E7121D5CBF51F8043B40F8D7
:1003A000043BAFF30080D20724BF11F8013B11F8E2
:1003B00001CB48BF11F8012B24BF00F8013B00F826
:1003C00001CB48BF00F8012B704710B5203AC0F0B0
:1003D0000B80B1E81850203AA0E81850B1E8185046
:1003E000A0E81850BFF4F5AF5FEA027C24BFB1E883
:1003F0001850A0E8185044BF18C918C0BDE81040F4
:100400005FEA827C24BF51F8043B40F8043B08BFFC
:100410007047D20728BF31F8023B48BF11F8012BC3
:1004200028BF20F8023B48BF00F8012B70474FF06F
:1004300000020429C0F0128010F0030C00F01B80B1
:10044000CCF1040CBCF1020F18BF00F8012BA8BFBF
:1004500020F8022BA1EB0C0100F00DB85FEAC17C83
:1004600024BF00F8012B00F8012B48BF00F8012B36
:1004700070474FF0000200B5134694469646203967
:1004800022BFA0E80C50A0E80C50B1F12001BFF44D
:10049000F7AF090728BFA0E80C5048BF0CC05DF8B3
:1004A00004EB890028BF40F8042B08BF704748BF01
:1004B00020F8022B11F0804F18BF00F8012B704775
:1004C00070477047704770B5044685690068C1067B
:1004D00001D5302600E02026C00707D070BDD4E942
:1004E000012130469047206A401C20626D1EF6D5DF
:1004F00070BD70B5044685690078C00707D170BD2E
:10050000D4E9012120209047206A401C20626D1E02
:10051000F6D570BD09684A0501D540B27047C905D6
:10052000FCD500B2704709684A0501D5C0B27047D2
:10053000C905FCD580B2704770B50C460546012A46
:1005400005D02878800600D5EA69002302E001235F
:1005500005E05B1C934202D2E05C0028F9D1A86957
:10056000E618C01AA861286A184428622846FFF7CE
:10057000AAFF04E0D5E9012114F8010B9047B44229
:10058000F8D32846FFF7B5FF70BD00002DE9F04114
:100590000646002410687529314616A510D0FFF7CD
:1005A000B9FF002802DA404213A507E031688A0744
:1005B00001D512A502E0490704D511A5012401E0E7
:1005C000FFF7B1FF00210A2206F1240709E0B0FB82
:1005D000F2FCB0FBF2F302FB1C00303078541846FA
:1005E000491C0028F3D123462A463046BDE8F04195
:1005F00000F069BA000000002D0000002B00000090
:100600002000000011680268006A530501D50870D7
:100610000AE0D30501D5088006E0130603D5C2170A
:10062000C1E9000200E008600120704701694A1C2E
:1006300002610878704700B58FB0CDE90131002123
:10064000059105497944CDE903101146684600F04B
:1006500031F90FB000BD0000E5FFFFFF0A6802F8A6
:10066000010B0A607047D1E900239A4202D2531C61
:100670000B601070704700002DE9FF5F15468A4639
:100680000446DFF8AC80F8440027D8E900103E4665
:10069000CDE9001010E03AF816106A4602A800F002
:1006A00025FE411C07D02178890603D5E269391857
:1006B00091420DD80744761C2078800602D5E06967
:1006C000B84205DDAE42E6DB3AF816000028E2D17A
:1006D000A069C01BA0612046FFF7F5FED8E9001015
:1006E000CDE90010002017E03AF818106A4602A879
:1006F00000F0FCFDB0F1FF3F81460BD000250DF16D
:10070000080B05E0D4E901211BF8050090476D1C9A
:100710004D45F7D308F10100B0428046E4DB206A82
:10072000384420622046FFF7E4FEBDE8FF9F00004A
:10073000A64800002DE9F0418046D21D22F00702B4
:100740000025D2E90002F52915A614D0011E72F188
:10075000000106DA0023D0EB030063EB020211A6CE
:1007600008E0D8F800108B0701D50FA602E0490772
:1007700001D50EA601251146002408F1240704E046
:1007800000F05CF930323A55641C50EA0102F7D1AE
:100790002B46324621464046BDE8F04100F093B971
:1007A000000000002D0000002B00000020000000D1
:1007B00030B4002100F1240408E002F00705D2085B
:1007C000303542EA4372DB086554491C52EA03059E
:1007D000F3D10468002310A2250707D5A40600D48E
:1007E00021B1C46901230DA2641EC46130BC00F0B4
:1007F0006AB910B5044621461068FFF794FE024618
:100800002046BDE810400023D2E7D21D22F00701A8
:10081000D1E90023CCE70000000000003000000018
:10082000F0B40D460188090502D5214C7C4402E054
:100830001F4C7C440E34002100F1240608E002F035
:100840000F071209E75D42EA03721B097754491C3E
:1008500052EA0307F3D102780023120704D5702D62
:1008600006D009B1022311342246F0BC00F02BB9A6
:1008700001231034F8E770B504460D462146106890
:10088000FFF751FE024629462046BDE8704000238E
:10089000C6E7D21D22F00703D3E90023C0E70368AF
:1008A000126843F0200303600823C3610023B7E705
:1008B000084700002DE9F05F894604464FF0000A22
:1008C000DFF874B1FB44C0F820A02046E1688847F7
:1008D000002874D0252806D0D4E901219047206A49
:1008E000401C2062F1E700265F462046E168884709
:1008F0002028054607DB312D05D2781910F8200C89
:1009000008B10643F1E7B00701D526F00406C4F8A4
:100910001CA00027C4F818A02A2D09D0284602F0F0
:100920009AFF38B304EB8708303DC8F8185019E037
:1009300059F8041B204604EB87029161E16888475F
:10094000012F054618D1E069002820DA26F020069C
:100950001DE0D8F8180000EB800005EB40003038AF
:10096000C8F818002046E1688847054602F073FF82
:100970000028EED1012F0AD02E2D08D12046E168A3
:1009800088477F1C0546022F46F02006C4DBA0697D
:10099000002803DA404246F00106A061F00701D0CA
:1009A00026F010066C2D0BD0682D09D04C2D39D0B7
:1009B0006A2D35D0742D35D07A2D33D016E038E03D
:1009C000E1682F4620468847B842054609D16C2F7A
:1009D00026D04FF48060E1680643204688470546EC
:1009E00004E06C2F1AD04FF4807006430DB3A5F1CC
:1009F0004100192802D8203546F400664A462946A7
:100A0000204626604E46FFF7ABFB80B101280BD095
:100A1000F61D26F0070000F1080956E74020E4E73C
:100A20008020D8E70020D6E706F104094DE72846E4
:100A300052E7206ABDE8F09F9846000030B5B0F15B
:100A40000A024FEA900E71F100034EEA817EB0EB8C
:100A50000E0061EB91014FEA101E4EEA017E10EB91
:100A60000E0041EB11114FEA102E4EEA016E10EB11
:100A70000E0041EB11214FEA104E4EEA014E10EBF1
:100A80000E0041EB1141401841F100014FEAD00046
:100A900040EA41704FEAD10110EB80054FEA810432
:100AA00044EA907444EB01046D1944EB0404521BB6
:100AB000A3414FF0000348BF0A3200D530BD401CAF
:100AC00041F1000130BD2DE9F0470D4699469246AF
:100AD000044600F124080168880604D5E06921F085
:100AE0001001216000E00120A84201DD471B00E069
:100AF0000027A1697A1902EB0900081AA061207881
:100B0000C00602D42046FFF7DEFC002608E0D4E948
:100B100001211AF806009047206A401C761C2062CA
:100B20004E45F4DB2078C0060AD52046FFF7CBFC03
:100B300006E0D4E9012130209047206A401C206261
:100B4000381EA7F10107F4DC07E0D4E9012118F809
:100B500005009047206A401C2062281EA5F101056F
:100B6000F3DC2046FFF7C5FC2078000602D5022002
:100B7000BDE8F0870120FBE770472DE9FF4F0C46E9
:100B80001E464FF0FF378BB0D2E90001DDF86080E0
:100B90000A908A46C1F30A5505B93D460021084628
:100BA0004FF00000BAF1000F00F4400005DA00EB4E
:100BB00080004FF4400101EA50004FEA9059B9F12A
:100BC000010F00DDB9460A9850EA4A000ED044F6FB
:100BD0001050A5F2FF3545432F14B8F1000F1ED079
:100BE0007542291E1EDDC9F100021CE0B8F1010F9B
:100BF0004FF0000001D0302103E0F24305E0215422
:100C0000401CB042FBDB30460022002121540B99EE
:100C1000C1F80880C1E900200FB0BDE8F08FBD1B0E
:100C20006D1CDEE74A4600DA694206A800F0F0FBD8
:100C300006AB93E8070003AB83E8070050460A9928
:100C400000F0ADFC8DE80700A0F500501F380090C3
:100C50000398002D0ADD42F21F014A460844002392
:100C600003A90390684600F016FF09E0A0F50050C4
:100C70004A461F38002303A90390684600F020FF6E
:100C80008DE807000004000C03D04FF0FF3041084E
:100C900000E01046B8F1000F03D000220092154684
:100CA0001EE0751E05D4FFF7C9FE303262556D1E79
:100CB000F9D5B3460122084302D000227F1C04E08C
:100CC0002078302801D100227F1E002A099784D085
:100CD0001DE0112D07DAFFF7B1FE303262556D1CB1
:100CE00050EA0102F5D1084302D00098C8B10EE0E5
:100CF0000021681E05E0235C625C63542254401EA0
:100D0000491C8142F7DBAB46A81B401E099000201E
:100D100004F80B000B98099AC0F80880C0E9002B72
:100D20007AE711264FF0000857E72DE9F04F884683
:100D30000446D21D22F0070191B0D1E90001CDE9AE
:100D40000A0102F064FD02460B98C00F01D02D206D
:100D500007E02068810701D52B2002E0202101EA6D
:100D6000C000032A099001D0072A05DB034641464B
:100D7000204600F00DFB0BE12078800601D5E069EC
:100D800000E00620B8F1650F814606D0B8F1660F85
:100D900018D0B8F1670F70D131E00020B9F1110F10
:100DA000009001DB112301E009F101030AAA01A966
:100DB0000CA8FFF7E2FEDDE90C70002609F1010541
:100DC000834647E001204B4600904FF000470AAAB7
:100DD00001A90CA8FFF7D1FEDDE90DB00C995D4625
:100DE000002610B909F101000D18B9EB050003D474
:100DF000C0F1FF3609F10105A5EB09002BE0B9F1BF
:100E0000010F01DA4FF001090020B9F1110F009034
:100E1000484601DD112300E003460AAA01A90CA8F7
:100E2000FFF7ABFEDDE90C704D46002683462078C7
:100E300000070AD4AB4500DA5D4601A8012D04DDA8
:100E4000411911F8011C302907D04F4502DA17F17A
:100E5000040F04DA012082460FE06D1EEEE7002F3A
:100E600002DCED1B3E4403E0781CA84200DD7D1C43
:100E7000B81B00F1010A4FF000472078000703D4A7
:100E8000AA4501DB4FF0FF3A0021B7F1004F0DF109
:100E900043088DF8431024D002202B23002F01DAC1
:100EA0007F422D230A21021EA0F1010000DC5FB168
:100EB00097FBF1FC97FBF1F201FB1C7C17460CF150
:100EC000300C08F801CDEEE7A8F10100037021888D
:100ED000090501D5452100E06521A0F1010800F8D0
:100EE000011C09980FA9A1EB0807FF1D00B1012003
:100EF000411901EBEA70A1693844081A401EA0614B
:100F00002078C00602D42046FFF7DDFA099828B100
:100F1000D4E901219047206A401C20622078C00655
:100F200022D52046FFF7CFFA1EE0002E04DBB345A2
:100F300002DD01A8805D00E03020D4E90121904766
:100F4000206A401C2062761CAAF101005FEA000AB8
:100F50000AD100F019FAC0680168405CD4E90121A7
:100F60009047206A401C2062281EA5F10105DCDCA8
:100F700007E0D4E9012118F8010B9047206A401CD2
:100F80002062381EA7F10107F3DC2046FFF7B1FA13
:100F9000032011B041E600002DE9F04F04460D4654
:100FA000D21D22F0070089B0D0E9009748463946A3
:100FB00002F02DFC0246F80F01D02D2307E0206837
:100FC000810701D52B2302E0202101EAC0038DF81F
:100FD00020300BB1012000E00020032A824601D01E
:100FE000072A04DB2946204600F0D2F93FE12078A9
:100FF000800601D40D2500E0E569C7F30A560D2DE2
:1010000049DA00214FEA175B08464FF00000002F35
:1010100000F4400007DA00EB80004FF4400100EBE1
:10102000D07001EA60008115012901DD4FF0FF3128
:1010300000224FEA850CBCF1180F06D31346ACF121
:1010400018004FF08052C24003E04FF4801323FA9F
:101050000CF30CF10C0CBCF1200F04D3ACF1200C00
:1010600009FA0CF001E007FA0CF000294FF00048F3
:1010700001DD18B90FE00ED140450CD319EB020980
:101080005F4121B9404502D19F4329EA0209BBEBE8
:10109000175F00D0761C2088000502D57B48784475
:1010A00002E07A487844193808AA302302F80A3056
:1010B000037C0AF10101002E0AF1020A53546A4628
:1010C00002DC4FF0300101E04FF031014FF0010838
:1010D0008DF8001002D0A6F2FF3603E059EA47016E
:1010E00000D06B4E002D02DC2178090704D54FF0AB
:1010F00002082E218DF80110C44600210BE0C7F331
:1011000003433F01C35C491C6D1E02F808300529EA
:1011100008F1010801DA002DF1DC00210CE000EB00
:101120001973491C1B786D1E082902F808304FEA14
:10113000091908F1010801DA002DF0DC21688B069D
:1011400002D516E0A8F10108E04505DD02EB080331
:1011500013F8013C302BF5D0B8F1000F09DD02EB9C
:10116000080313F8013C2E2B03D1090701D4A8F181
:101170000108002D05DD3E2102F808106D1E08F162
:101180000108407C002E02F8080008F1010804DA8A
:101190002D20764202F8080002E02B2002F8080019
:1011A0000A214FF47A70864208F101080BDB96FBA6
:1011B000F0F3303302F8083096FBF0F308F1010841
:1011C00000FB136601E0642E0CDB642096FBF0F359
:1011D000303302F8083096FBF0F308F1010800FB09
:1011E000136601E00A2E06DB96FBF1F0303002F8C0
:1011F000080008F1010896FBF1F001FB10603030A7
:1012000002F80800A16908F1010808EB050202EBE9
:101210000A00081AA0612078C00602D42046FFF711
:1012200052F9216A08AE01EB0A00206204E0D4E919
:10123000012116F8010B9047BAF1010AF7D2207884
:10124000C00602D52046FFF73EF96E4609E016F8C3
:10125000010B3E280FD0D4E901219047206A401CA1
:101260002062B8F10108F2D22046FFF742F909B036
:101270000320BDE8F08F206A2844206203E0D4E90F
:101280000121302090476D1EEBD3F8E7E23E0000CD
:1012900002FCFFFF10B5436913B1AFF3008001E01A
:1012A000FFF74AF9012010BD127800F124010A70FD
:1012B00000224A700122EDE711684FF0FF32E9E7A2
:1012C00010B5436913B1AFF3008001E0FFF7D4F923
:1012D000012010BD128800F1240182840022C28402
:1012E0000122EDE711684FF0FF32E9E770B51646CD
:1012F0000C46054600F040F8036893F80101012808
:1013000006D0FF2C0FD8185D68B101202C7070BD7D
:10131000D3F807013246214603F207130344284657
:10132000BDE8704018474FF0FF3070BD754600F0C3
:10133000EBF8AE4605006946534620F007008546A7
:1013400018B020B5FEF7D0FFBDE820404FF00006F2
:101350004FF000074FF000084FF0000B21F007019D
:10136000AC46ACE8C009ACE8C009ACE8C009ACE8E0
:10137000C0098D467047000010B500F005F8001D4B
:1013800010BD00BF053B00000048704784110020DD
:101390002DE9F0411F46044603260168072A01F49F
:1013A000006004DB08B116A505E016A503E008B14E
:1013B00015A500E015A521F010002060A069C01E51
:1013C000A0610FB1401EA0612046FFF77CF84FB12D
:1013D000D4E9012138469047206A401C2062C01C95
:1013E000206206E0206AFAE7D4E9012115F8010B32
:1013F0009047761EF8D22046FFF77BF8BDE8F081D3
:101400004E414E006E616E00494E4600696E6600A8
:101410002DE9F047814616468AB0354878440DC814
:101420008DE80D0032487844801C03AC0DC884E878
:101430000D0041F69B300844372190FBF1F290FB00
:10144000F1F5A5F1800501FB12041B3C02D56442B5
:10145000012000E00020DFF898A080460027FA4431
:10146000AAF1BE0A0EE0E0070AD03246684607EB52
:10147000470101230AEB810100F022FB8DE8070000
:1014800064107F1C002CEED1194F7F44AE3F19E051
:10149000E80715D007EB04100DF1180A90E80E00CC
:1014A0008AE80E00C068F04201D1981908903246CF
:1014B000012306A903A800F003FB03AB83E80700A0
:1014C0006D10641C002DE3D14FF0010332466946D4
:1014D000B8F1000F03A802D000F0DDFA01E000F03F
:1014E000EFFAC9E90001C9F808200AB0BDE8F087A1
:1014F000F43B000010B50446AFF300802046BDE881
:101500001040FEF790BE00000048704764110020B4
:101510004FF0013C50F8042B51F8043B9A4221D182
:10152000A2EB0C03934313EACC1317D150F8042B0E
:1015300051F8043B9A4215D1A2EB0C03934313EAF2
:10154000CC130BD150F8042B51F8043B9A4209D12B
:10155000A2EB0C03934313EACC13DBD04FF0000053
:10156000704700BFD01A01BAB1FA81F101F0180139
:1015700022FA01F0CB40C1F12001DBB2C0B2C01AA7
:101580002CFA01F3D11A914311EAC311E6D1704745
:1015900001491820ABBEFEE72600020070475FEA53
:1015A000400C08BF91F0000F4FEA8C234FEAC12294
:1015B00043EA51514FEA1C5018BF00F5F0404FEA82
:1015C000300018BF41F000415FEA6C5C00F02980F8
:1015D000BCF1FF3F08BF40F080407047130C06BFCE
:1015E00012044FF0100C4FF0000C130E04BF120247
:1015F0000CF1080C130F04BF12010CF1040C930F33
:1016000004BF92000CF1020CD30F04BF52000CF186
:10161000010C11464FF00002A0F11F00A0EB0C00DE
:10162000704711F0004F08BF704731F000413FF4A0
:10163000D5AF0B0C06BF09044FF0100C4FF0000C97
:101640000B0E04BF09020CF1080C0B0F04BF0901BB
:101650000CF1040C8B0F04BF89000CF1020CCB0FB2
:1016600004BF49000CF1010CCCF12003A0EB0C00ED
:1016700022FA03F302FA0CF241EA030100F101003D
:10168000704720F07F4C80EA030023F07F47ACEBEB
:10169000070303F57C5300F0004003F1FF032DE93D
:1016A00080494FEA154B09B44FEA144325EA0B4E23
:1016B00024EA03480FF2042606EB132749083E7874
:1016C0005FEA320203FB0667C7F5000707FB06F671
:1016D0004FEA54374FEAD64606F1020607FB066C7E
:1016E000CCF1005C4FEA1C472CEA074C07FB06F4E0
:1016F0000CFB06F504EB15464FEA961634BF0020A6
:101700004FF000404FEAD13706FB07FC4FEA1C4C74
:101710000CFB0BF7D21B03FB0CF761EB07010CFB77
:101720000EF7B0EB074072EB17420CFB08F734BF23
:10173000A2EB0742B2EB074261EB17414FEA0C44C0
:101740004FEA910706FB07FC4FEA1C4C0CFB0BF71A
:10175000B0EBC74072EB573203FB0CF734BFA2EB80
:10176000C742B2EBC74261EB57310CFB0EF7B0EB4F
:10177000C70072EB57720CFB08F734BFA2EBC7022D
:10178000B2EBC70261EB5771039F4FEA816141EAF7
:10179000921104EBCC044FEAD1374FEA826206FB88
:1017A00007FC42EA90124FEA80604FEA1C4C0CFBA7
:1017B0000BF7D21B03FB0CF761EB07010CFB0EF7D9
:1017C000B0EB074072EB17420CFB08F734BFA2EBFB
:1017D0000742B2EB074261EB17414FEA8C554FEAE3
:1017E000910704EB9C2406FB07FC4FEA1C4C0CFB06
:1017F0000BF7B0EBC74072EB573203FB0CF734BF6B
:10180000A2EBC742B2EBC74261EB57310CFB0EF7BC
:10181000B0EBC70072EB57720CFB08F734BFA2EBBA
:10182000C702B2EBC70261EB577115EB4C254FEACB
:10183000816141EA92114FEA82624FEAD13742EA6E
:10184000901206FB07FC44F100044FEA80604FEA67
:101850001C4C0CFB0BF7D21B03FB0CF761EB0701D5
:101860000CFB0EF7B0EB074072EB17420CFB08F7CE
:1018700034BFA2EB0742B2EB074261EB174115EB15
:101880001C154FEA813141EA92414FEA823242EA25
:1018900090424FEA80304FEA0C7644F1000448EA67
:1018A00003434EEA0B484FF0000EB2EB080C71EB0D
:1018B000030724BF624639464EEB0E0E4FF0000B75
:1018C0000018524149414BEB0B0BB2EB080C71EB8A
:1018D00003077BF1000B24BF624639464EEB0E0E28
:1018E0004FF0000B0018524149414BEB0B0BB2EB90
:1018F000080C71EB03077BF1000B24BF62463946ED
:101900004EEB0E0E51EA020718BF46F0010616EB29
:101910000E7655F1000254F1000103D5BDE88901AE
:10192000BDE80088BDE88901BDE80048B61952410C
:1019300041EB0101A3F10103704780807F7E7D7C34
:101940007B7A7978777676757473727171706F6E51
:101950006E6D6C6C6B6A6A696868676666656464FC
:10196000636362616160605F5F5E5E5D5D5C5C5B86
:101970005B5A5A59595858575756565555555454F5
:10198000535352525251515050504F4F4F4E4E4D53
:101990004D4D4C4C4C4B4B4B4A4A4A49494948489F
:1019A00048474747474646464545454444444443DF
:1019B00043434342424242414141002B9C4630D482
:1019C00077002BD01CB54FEA370703B44FF0100057
:1019D0004FF01001BAF1000F06D0BCF1000FDCBFD0
:1019E00040F0080040F008014FF000000FBCBDE8D7
:1019F00010400BF1010BBBF1010F08BF5FEA1707A5
:101A000022BF12F1010211F101014FF0004143F137
:101A1000000300F0004043EA00007047F9D3570884
:101A2000D0E746EA064613F1400F4FEA16461FDD9F
:101A300013F1200FDFBF16430A46002120335B421B
:101A4000BED0C3F1200746EA064602FA07F74FEA7E
:101A5000164646EA0706C3F1200722FA03F201FA06
:101A600007F721FA03F14FF0000342EA0702A7E764
:101A700046EA020646EA06464FEA164646EA0106E6
:101A8000BCBF46EA0646360C4FF000034FF000029A
:101A90004FF0000194E72DE9804C9A46934670B4CC
:101AA00091E8380007C831EA400C48BF34EA430CDB
:101AB00003D5FFF7E6FDFFF780FFF0BCBDE8008C23
:101AC0002DE9804C9A46934670B491E8380007C8D7
:101AD00010F0804F08BF13F0804F03D100F005F8DD
:101AE000FFF76BFFF0BCBDE8008C20F07F4780EA79
:101AF000030023F07F4C07EB0C03A3F57C5300F0AD
:101B00000040A3F1FE0392F0000F00F0B38095F0C7
:101B1000000F00F077802DE901494FEA11404FEAAC
:101B2000144621EA004800FB06FC24EA064708FBAD
:101B300006F607FB08F800FB07F718EB06484CEB26
:101B4000164C4FEA124B18EB07484FEA15464CEB80
:101B5000174022EA0B4E0BFB06FC25EA06470EFB5C
:101B600006F607FB0EFE0BFB07F71EEB064E4CEBD3
:101B7000164C4FF000061EEB074E4CEB174B18EBC4
:101B80000B0840F1000018EB0E0B58EB000840F179
:101B900000008F1A4FF000013CBFC943661B14BF01
:101BA000B5EB040C00213CBFC943F61B4FEA1744B8
:101BB0004EEA8E0E27EA04454FEA1C4704FB0762F3
:101BC0002CEA074C05FB07F70CFB05F604FB0CFCA5
:101BD00016EB074642EB174216EB0C4642EB1C4253
:101BE0001BEB060658EB0202414146EA9E0601D570
:101BF000BDE80189B619524141EB0101A3F101038E
:101C0000BDE801894FEA14454FEA114724EA054629
:101C100021EA074C05FB07F406FB07F70CFB06F16E
:101C200005FB0CFC11EB074144EB17444FEA12474C
:101C300011EB0C4144EB1C4422EA074C05FB07F274
:101C400006FB07F70CFB06F605FB0CFC16EB07463C
:101C500042EB174216EB0C4642EB1C456A1854F156
:101C6000000148BF7047B619524141EB0101A3F191
:101C70000103704795F0000F37D04FEA11424FEA49
:101C8000144721EA024624EA074C02FB07F106FB4F
:101C900007F70CFB06F402FB0CFC14EB074441EBCA
:101CA00017414FEA154714EB0C4441EB1C4125EA60
:101CB000074C02FB07F506FB07F70CFB06F602FBD9
:101CC0000CFC16EB074645EB174516EB0C4645EBAF
:101CD0001C42121951F1000148BF7047B619524118
:101CE00041EB0101A3F1010370474FEA14454FEAAC
:101CF000114724EA054621EA074C05FB07F106FBDC
:101D000007F70CFB06F24FF0000605FB0CFC12EB8C
:101D1000074241EB174112EB0C4251EB1C4148BF0B
:101D20007047921841EB0101A3F101037047FEE7F0
:101D3000014800F08BB80000E803002030B590F8AF
:101D400040500124AC40C56B6C600468636043681C
:101D5000102B036803D099600068C26030BD9A60A0
:101D60000068C16030BD704772B6FEE710B590F8EC
:101D700021100022022905D00421816380F820204F
:101D8000012010BD01680B6823F00E030B60016891
:101D90000B6823F001030B6090F84030C46B012105
:101DA00001FA03F3636080F8211080F820201046C8
:101DB00010BD000010B590F821100024022903D0B6
:101DC0000421816301243DE001680A6822F00E02CB
:101DD0000A6001680A6822F001020A601A4A016872
:101DE000914201D1012121E0174A1432914201D1DF
:101DF00010211BE0144A2832914201D1891515E0C7
:101E0000114A3C32914201D189140FE00E4A5032FE
:101E1000914202D14FF4803108E00B4A6432914282
:101E200002D14FF4801101E04FF08071064A083A68
:101E30005160012180F82110002180F82010416BB1
:101E400001B18847204610BD080002402DE9F05F2F
:101E5000C16B0C6801680B68D0F840C0042202FA1C
:101E60000CF2494DDFF824A1494E4A4FDFF828B162
:101E7000DFF828E122422CD05A072AD50A689206B8
:101E800003D40A6822F004020A600168A94201D161
:101E9000042219E0514501D1402215E0B14202D19E
:101EA0004FF4806210E0B94202D14FF480420BE05F
:101EB000594502D14FF4802206E0714502D14FF41A
:101EC000800201E04FF080622F4908394A60C16A00
:101ED0003BE04FF0020808FA0CF818EA040F4FF044
:101EE00000094FF0010235D05FEA837832D50B68E4
:101EF0009B0605D40B6823F00A030B6080F82120B1
:101F00000168A94201D1022219E0514501D12022E4
:101F100015E0B14202D14FF4007210E0B94202D193
:101F20004FF400520BE0594502D14FF4003206E065
:101F3000714502D14FF4001201E04FF000721249D6
:101F400008394A6080F82090816A00291AD0BDE8DB
:101F5000F05F0847082505FA0CF5254212D01B074B
:101F600010D50B6823F00E030B6090F84010C36B84
:101F700002FA01F15960826380F8212080F82090F4
:101F8000016BE2E7BDE8F09F080002401C00024040
:101F90003000024044000240580002406C00024001
:101FA00030B528B308C8134914221944B1FBF2F123
:101FB0008900C16310498163022141771A6843F6A1
:101FC000F0718A43D0E900142143D0E902452C4343
:101FD0002143046921434469214384692143114316
:101FE000196000214163012242770177084630BD24
:101FF000012030BDF8FFFDBF0000024070B504466F
:1020000090F82000002501280CD0012084F8200041
:1020100094F821600020012E06D084F820000225CB
:10202000284670BD022070BD022684F82160A0639E
:102030002068066826F0010606602046FFF77EFE4F
:10204000E06A00282068016802D041F00E0106E035
:1020500021F0040101602068016841F00A0101607B
:102060002068016841F001010160D9E72DE9F84FCE
:10207000DFF8B8910024A9F1040B23460F2709F1DA
:10208000040AABF1040EC9E00125A5402A40AA428A
:102090007DD1674ED1F804C0ACEB0608B44532D010
:1020A00014DCBCF1030F3AD009DCBCF1000F2AD0DC
:1020B000BCF1010F1CD0BCF1020F31D11DE0BCF10D
:1020C000110F17D0BCF1120F2AD119E0B8F5881FF3
:1020D00019D006DCB8F5803F15D0B8F5801F1FD1A8
:1020E00011E0B8F5001F0ED0B8F5041F18D10AE0B2
:1020F000CB6815E0CB681B1D12E0CB6808330FE0FE
:10210000CB680C330CE08B682BB1012B4FF008032C
:1021100003D0456104E0042302E0056100E00023F0
:10212000FF2A01D8064601E000F104064FEA8405C3
:1021300001D9A5F12005D6F8008007FA05FC28EAA8
:102140000C0803FA05F548EA0508C6F800804D6852
:10215000ED0062D5374DAE6946F00106AE61AD695E
:1021600024F0030605F001050095334D06EB050C40
:10217000DCF80850A607360F07FA06F825EA080526
:10218000DFF8B880404503D14FF0000817E044E085
:10219000DFF8AC80404502D14FF001080FE0DFF8D6
:1021A000A480404502D14FF0020808E0DFF8988093
:1021B000404502D14FF0030801E04FF0040808FA4F
:1021C00006F848EA0508CCF808804D68D9F80060A0
:1021D000ED024D4601D5164300E096432E604D6852
:1021E000DAF80060AD02554601D5164300E096438B
:1021F0002E604D68DBF80060AD035D4601D51643E7
:1022000000E096432E604D68DEF80060ED037546F1
:1022100001D5164300E096432E60641C0D682A46E3
:10222000E5407FF431AFBDE8F88F000008040140BD
:1022300000001110001002400000014000080140A1
:10224000000C01400010014000140140806808406B
:1022500000D0012070470AB1016170470904FBE713
:1022600001488068704700001C00002070B5040021
:1022700025D094F83D00002520B984F83C50204634
:1022800000F0B8F8242084F83D002068016821F0AF
:10229000010101602068016841F40041016020688B
:1022A000016821F40041016000F05CFA4D4A616868
:1022B000914201D84C4900E04C49884201D20120AA
:1022C00070BD4B492368B0FBF1F15E6826F03F0614
:1022D0000E435E606368934206D94FF49673594388
:1022E0004FF47A73B1FBF3F12368491C1E6A26F0A0
:1022F0003F06314319626168914210D84900401E7F
:10230000B0FBF1F2521CC2F30B02042A01D20420EA
:1023100022E0B0FBF1F0401CC0F30B001CE0A2680F
:10232000F2B301EBC10303EB0116431EB3FBF6F35B
:102330005B1C43F480431B0549D092B301EBC102FF
:1023400002EB0111401EB0FBF1F0401CC0F30B008A
:1023500040F4804040F400402168CA694CF6FF73A5
:102360009A431043C861D4E907100143206802680A
:1023700022F0C00211430160D4E903010143206847
:10238000826848F2FF339A4311438160D4E9050122
:1023900008432168CA6822F0FF021043C86001E0C8
:1023A0000EE016E02068016841F00101016025643B
:1023B000202084F83D00256384F83E50002070BD45
:1023C00001EB4106431EB3FBF6F35B1CB3E70120B0
:1023D000C2E701EB4101401EB0FBF1F0401CC0F32D
:1023E0000B00B7E7A086010080841E0000093D00B5
:1023F00040420F0010B586B000210091019102917A
:10240000039100681349884222D1134CA06940F01F
:102410000800A061A069694600F0080004904FF42C
:102420004070009012200190032003900B48FFF7AA
:102430001DFE0B48416841F0E06141F0020141603E
:10244000E06940F40010E061E06900F400100490DD
:1024500006B010BD0054004000100240000C0140C6
:102460000000014002488168027811448160704791
:102470001C000020074810B5016841F01001016000
:10248000032000F0A7F80F2000F006F800F050F845
:10249000002010BD0020024030B505461F4887B01F
:1024A000C16941F00401C161C06906A900F00400DE
:1024B000009001A800F036F90498B0B100F052F98C
:1024C00040001749174AB0FBF1F11748491E026056
:1024D000416040F2E7320021C0E90321816081615F
:1024E00000F018FB040003D015E000F03BF9E8E72A
:1024F0000D4800F03DFB04000DD11E2000F03CF81B
:10250000102D07D2002229461E2000F043F807486C
:10251000056000E0012407B0204630BD00100240F5
:1025200040420F00000800402C0400202000002042
:102530000F4808B5816941F001018161816901F0AD
:1025400001010091C16941F08051C161C06900225F
:1025500000F0805000900F21901E00F01BF80548FD
:10256000416821F0E06141F00071416008BD000068
:102570000010024000000140002809DB00F01F02AB
:10258000012191404009800000F1E020C0F80011D5
:1025900070470000F0B40E4B1B680C46C3F30223D7
:1025A000C3F10705042D00D90425191D072901D2FF
:1025B000002300E0DB1E012606FA05F1491E21403A
:1025C00099409E40761E16403143F0BC01F033B96D
:1025D0000CED00E0064900F0070208684FF6FF0323
:1025E000184040EA0220034A104308607047000088
:1025F0000CED00E00000FA052DE9F0470F4605005C
:1026000061D0434E306800F00700B84209D230680C
:1026100020F0070038433060306800F00700B8420F
:1026200051D128683B4C810712D5400703D560681B
:1026300040F4E06060602878000703D5606840F4EB
:10264000605060606068A96820F0F0000843606036
:102650002878C00728D06868012810D0216802288F
:1026600010D0890700292EDA616821F003010143A7
:102670006160FFF7F5FD804641F288390DE0216881
:102680008903EFE78901EDE7FFF7EAFDA0EB080119
:10269000494502D90320BDE8F0876068696800F009
:1026A0000C00B0EB810FEFD1306800F00700B842AA
:1026B0000BD9306820F0070038433060306800F0F4
:1026C0000700B84201D00120E5E72878400705D58A
:1026D0006068E96820F4E0600843606028780007DB
:1026E00006D56068296920F4605040EAC100606046
:1026F00000F058F86168084AC1F30311515CC84002
:102700000649086006480068FFF7C6FE0020C2E7D9
:102710000020024000100240164F00082800002050
:10272000200000200F2202600C4A536803F00303CC
:102730004360536803F0F0038360536803F4E0637D
:10274000C36052684FF4E06303EAD20202610448B6
:10275000006800F0070008607047000000100240A9
:10276000002002400448054900684968044AC1F352
:102770000221515CC8407047280000200010024030
:10278000264F00080448054900684968044AC1F317
:10279000C221515CC8407047280000200010024050
:1027A000264F00080E4A51680E4801F00C03042B16
:1027B00011D0082B0FD10C48C1F38343C903C05C6F
:1027C0000AD55168084AC1F34041921E515C054A3E
:1027D0005043B0FBF1F07047044948437047000094
:1027E0000010024000127A00064F000800093D0068
:1027F0002DE9F84F040070D02078C04DC00749D0B3
:102800006868C0F38100012807D06868C0F38100C0
:10281000022809D16868C00306D52868800339D525
:1028200060680028E7D035E06068B0F5803F0BD0E5
:1028300010B1B0F5A02F11D0286820F480302860A6
:10284000286820F4802002E0286840F48030286066
:10285000606890B1FFF704FD06460AE0286840F47E
:1028600080202860F0E700BFFFF7FAFC801B642897
:1028700073D828688003F7D50CE0FFF7F1FC064613
:1028800005E000BFFFF7ECFC801B6428F0D8286847
:102890008003F7D420789A4E80074FF001094FF05B
:1028A000000839D5686810F00C0F07D06868C0F3CD
:1028B0008100022809D16868C00306D4286880070F
:1028C00014D52069012808D110E02069B0B1C6F8FC
:1028D0000090FFF7C5FC074605E00AE1FFF7C0FCE2
:1028E000C01B0228C4D828688007F7D5286861690A
:1028F00020F0F80040EAC10028600DE0C6F8008032
:10290000FFF7AEFC074604E0FFF7AAFCC01B022855
:1029100023D828688007F7D4207800072CD5794879
:10292000A169D9B1C0F80090FFF79AFC074604E00E
:10293000FFF796FCC01B02280FD8686A8007F7D5FE
:1029400071484FF4FA510068B0FBF1F0009000BFFD
:102950000098411E0091FAD20EE080E0C0F800809D
:10296000FFF77EFC074604E0FFF77AFCC01B022855
:1029700075D8686A8007F7D42078400760D5E86981
:102980000027C00008D4E86940F08050E861E86999
:10299000012700F0805000905C480168C90513D4FD
:1029A0000168834641F480710160FFF759FC82465B
:1029B00006E000BFFFF754FCA0EB0A0064284ED8E5
:1029C000DBF80000C005F5D5E06801280AD008B1A1
:1029D000052813D0286A20F001002862286A20F018
:1029E000040002E0286A40F001002862E06841F239
:1029F000883B98B1FFF734FC82460BE0286A40F030
:102A000004002862EEE700BFFFF72AFCA0EB0A01F2
:102A100059455AD8286A8007F6D50CE0FFF720FC04
:102A2000824605E0FFF71CFCA0EB0A0159454CD893
:102A3000286A8007F6D41FB1E86920F08050E86169
:102A4000E06988B36968C1F38101022944D0022892
:102A5000C6F8608004D0FFF703FC044638E034E099
:102A6000FFF7FEFB074604E0FFF7FAFBC01B022856
:102A70002BD828688001F7D4206AB0F5803F05D1B3
:102A80006868A16820F4003008436860D4E9080150
:102A90000843696821F4741108436860C6F86090BF
:102AA000FFF7DEFB044606E025E000BFFFF7D8FB9A
:102AB000001B022809D828688001F7D51BE000BF59
:102AC000FFF7CEFB001B022802D90320BDE8F88FD8
:102AD00028688001F4D40EE00128F7D06868226AE3
:102AE00000F48031914204D1616A00F47010884290
:102AF00001D00120EAE70020E8E7000000100240D2
:102B00000000424280044242280000200070004041
:102B10007047704710B5040003D094F83D0010B121
:102B200007E0012010BD002084F83C00204600F0A2
:102B30001EF8022084F83D00211D206800F0DEFC14
:102B4000012084F8460084F83E0084F83F0084F8B1
:102B5000400084F8410084F8420084F8430084F87F
:102B6000440084F8450084F83D00002010BD704703
:102B700090F83D10012901D001207047022180F812
:102B80003D100168CA6842F00102CA6000680B4942
:102B9000884208D0B0F1804F05D00949884202D060
:102BA0000849884204D1816801F00701062903D051
:102BB000016841F00101016000207047002C0140D4
:102BC000000400400008004070472DE9F041044631
:102BD0000068C66805694FF00007A90713D5B1075B
:102BE00011D5F91E016101202077206880698007D6
:102BF000204602D0FFF7E8FF04E000F07EF8204610
:102C000000F07CF82777680716D5700714D521687F
:102C10006FF004000861022020772068806910F4BA
:102C2000407F204602D0FFF7CFFF04E000F065F8B8
:102C3000204600F063F82777280715D5300713D50D
:102C400021686FF008000861042020772068C069BF
:102C50008007204602D0FFF7B7FF04E000F04DF8F0
:102C6000204600F04BF82777E80616D5F00614D575
:102C700021686FF010000861082020772068C06983
:102C800010F4407F204602D0FFF79EFF04E000F0E2
:102C900034F8204600F032F82777E80708D0F0072C
:102CA00006D021686FF001000861204600F028F886
:102CB000280608D5300606D521686FF08000086127
:102CC0002046FFF725FF680608D5700606D521685F
:102CD0006FF040000861204600F01CF8A8060AD5F5
:102CE000B00608D521686FF0200008612046BDE8D5
:102CF000F041FFF70EBFBDE8F0817047704700005C
:102D000000680349884201D1FFF7ACBB704700005F
:102D10000008004070477047704710F8411F407826
:102D200008437047F8B5016804460868CA684B69EB
:102D300010F00F0F4FF0000559D003F0010602F418
:102D40009077374365D0C10705D0D10503D5616CB5
:102D500041F001016164410705D5D90703D0616CD9
:102D600041F002016164810705D5D90703D0616C88
:102D700041F004016164010707D502F020013143ED
:102D800003D0616C41F008016164616C00293AD0A4
:102D9000800604D5900602D5204600F073FC20681A
:102DA0004069616CC0F38010090700D460B320460D
:102DB00000F033FC20684069400621D520681430BB
:102DC00050E8001F21F0400140E80012002AF5D130
:102DD000E06BA8B16D494163E06BFEF7EBFF0028A3
:102DE00011D0E06B416B01B0BDE8F04008478306AD
:102DF0000FD593060DD52046BDE8F84000F042BC43
:102E00002046FFF789FFF8BD2046FFF785FF656480
:102E1000F8BD266B2023012E7CD1C6067AD5D606B6
:102E200078D508684868009048694FF00206400667
:102E300040D5E16B086840680004000CE8D0A28D22
:102E40008242E5D9E085886920282DD020680C30A1
:102E500050E8001F21F4807140E80012002AF5D1EB
:102E60002068143050E8001F21F0010140E80012F2
:102E7000002AF5D12068143050E8001F21F04001ED
:102E800040E80012002AF5D184F84230256320681A
:102E90000C3050E8001F21F0100140E80012002A19
:102EA000F5D1E06BFEF762FF6663A08DE18D401AFD
:102EB00081B22AE0A08DE18D401A81B2E08D002818
:102EC000A6D00029A4D022680C3252E8000F20F4CA
:102ED000907042E80007002FF5D12068143050E8C8
:102EE000002F22F0010240E80027002FF5D184F8DE
:102EF0004230256320680C3050E8002F22F0100289
:102F000040E80023002BF5D166632046FFF703FF5E
:102F1000F8BDFFE705062BD5150629D594F8410025
:102F20002128F5D1A068B0F5805F01D12069B0B14A
:102F3000206A411C2162216800784860E08C401EB4
:102F40000004000CE084E3D12068C16821F0800116
:102F5000C1602068C16841F04001C160D8E7206AC3
:102F60000088C0F308004860206A801C2062E5E702
:102F70004006CDD55006CBD5CA68204622F0400287
:102F8000CA6084F8413000F0D3F8C1E77535000815
:102F900070B5040004D094F84100002510B106E09B
:102FA000012070BD84F84050204600F023F8242012
:102FB00084F841002068C16821F40051C1602046B6
:102FC00000F0C2FB2068016921F490410161206892
:102FD000416921F02A0141612068C16841F4005132
:102FE000C1606564202084F8410084F84200656374
:102FF000002070BDF0B585B000250646009501950E
:103000000295039500682549884244D12448816986
:1030100041F480418161816901F4804104918169B9
:1030200041F00801816180691E4C00F008000490A5
:103030004020009002200190032003906946204622
:10304000FFF714F88027CDE9007569462046029500
:10305000FFF70CF81448416841F0E06141F00401C9
:103060004160134C114801C41020A1C4104844F819
:1030700010596561A561E561FEF792FF08B1FEF7A1
:1030800073FEB4630022052125206662FFF782FAF1
:103090002520FFF771FA05B0F0BD000000380140AF
:1030A00000100240000C01400000014044000240BA
:1030B000E80300207047000070B5044690F8410016
:1030C000202801D0022070BD49B342B32162A284FE
:1030D000E28400206064212384F84130A56B114B09
:1030E000AB62A56B104BEB62A56B104B2B63A36B14
:1030F0005863256813462A1DA06BFEF77FFF2168E1
:103100006FF0400008602068143050E8001F41F064
:10311000800140E80012002AF5D1002070BD012096
:1031200070BD0000CF350008113600088535000855
:103130000349884202D1034900200870704700000B
:10314000A0030020000000207047FEE7094808B5F2
:10315000416941F0010141614069002200F0010034
:10316000009005210E20FFF715FABDE808400E205B
:10317000FFF702BA0010024010B5124B92B00EAC2D
:103180000FCB84E80F0000210EA800F097FB0E4C37
:103190000C491C22606110316846FDF716F90021C8
:1031A000684600F029FC0749E0601C222C3107A882
:1031B000FDF70BF9002107A800F01EFC206112B0FA
:1031C00010BD0000BC4E00080400002070B586B0A1
:1031D00000241D480094019402940394816941F0F5
:1031E00004018161816901F004010491816941F068
:1031F000080181618069154E00F008004FF4806578
:103200000490002229463046FFF725F8FF20CDE93B
:103210000004694630460294FEF728FF47F607404F
:10322000CDE9000469460A480294FEF71FFF012019
:103230000095CDE901040220039069463046FEF76F
:1032400015FF06B070BD00000010024000080140EC
:10325000000C01400D4810B50B4901600C4941605C
:1032600000214FF480428160C0E903124161816115
:10327000C1610162FEF7FAFF002803D0BDE81040EB
:10328000FEF772BD10BD0000005400404C0300204A
:10329000A08601000C4810B50A4901604FF4612175
:1032A0004160002181600C22C160C0E9041281618B
:1032B000C161FFF76DFE002803D0BDE81040FEF7A6
:1032C00053BD10BD00380140A0030020FEE7FEE71B
:1032D00070B5324D01212846FEF7B8FF04460221A1
:1032E0002846FEF7B3FF44EA400404212846FEF7CF
:1032F000ADFF44EA800408212846FEF7A7FF44EA10
:10330000C00410212846FEF7A1FF44EA0014202142
:103310002846FEF79BFF44EA401440212846FEF76A
:1033200095FF44EA801480212846FEF78FFF1C4D4C
:1033300044EAC01401212846FEF788FF44EA00242D
:1033400002212846FEF782FF44EA40240421284651
:10335000FEF77CFF44EA802429152846FEF776FF15
:1033600044EAC024E9142846FEF770FF44EA00341A
:10337000A9142846FEF76AFF44EA40346914284637
:10338000FEF764FF44EA80344FF480412846FEF79C
:103390005DFF44EAC03080B270BD0000000801400B
:1033A000000C014000250B4CFFF792FF064601463A
:1033B0000A22606900F0EEFA2068401C2060642850
:1033C00004DB314604A0256000F034FE012000F04B
:1033D00068FAE9E7040000205B524541445D206241
:1033E00069746D61703D3078253034580D0A0000E5
:1033F0000EB5104C002532226846616900F074FA5F
:10340000DDE9000110280DD0A068401CA060142840
:1034100004DBA56008A0616800F00CFE0A2000F043
:1034200040FAE8E789B20CA000F004FE6068401C96
:103430006060F3E7040000205B53454E445D20517B
:103440007565756520656D7074792C2073656E7473
:103450003D25640D0A000000494E3A30782530348D
:10346000580D0A0010B5502080F31188BFF34F8F1C
:10347000BFF36F8F01F098FB18B104494FF08050F3
:103480000860002080F3118810BD000004ED00E00A
:1034900030B58FB028216846FCF7EBFF14210AA84D
:1034A000FCF7E7FF0225012004900095102005900D
:1034B00000244FF46010CDE9084007956846FFF7F7
:1034C00097F908B172B6FEE70F20CDE90A054FF46F
:1034D0008060CDE90C4002210AA80E94FFF78CF819
:1034E000002801D072B6FEE70FB030BD7047000073
:1034F0000148FFF76ABB00002C040020F0B5026809
:10350000194B1A4C1A4D4FF08047984205D0B842DB
:1035100003D0A04201D0A84203D122F070064A682D
:103520003243984205D0B84203D0A04201D0A8420D
:1035300003D122F44074CA6822434C6922F080020D
:10354000224302608A68C2620A688262984201D19C
:1035500009690163012141610169C90703D001695A
:1035600021F001010161F0BD002C01400004004088
:103570000008004010B5406A0021C185C184FFF7F2
:10358000CBFB10BD70B5446A2068406994F84110C7
:10359000C0F3C0100025212904D118B1E5842046CC
:1035A00000F062F82068406994F84210C0F380107F
:1035B000222904D118B1E585204600F02EF8606C70
:1035C00040F0100060642046FFF7A6FB70BD10B508
:1035D0000146406A09680968890616D40021C18439
:1035E0000168143151E8002F22F0800241E80023E5
:1035F000002BF5D101680C3151E8002F42F0400258
:1036000041E80023002BF5D110BDFFF791FD10BD5F
:1036100010B5406AFFF798FD10BD01680C3151E804
:10362000002F22F4907241E80023002BF5D10168AD
:10363000143151E8002F22F0010241E80023002B51
:10364000F5D1016B012909D101680C3151E8002F36
:1036500022F0100241E80023002BF5D1202180F850
:10366000421000210163704701680C3151E8002FBE
:1036700022F0C00241E80023002BF5D1202180F880
:103680004110704708B590F84210222901D002205D
:1036900008BD82684FF480539A4201D1016921B17B
:1036A000816A9A421BD04AB10AE00268816A526874
:1036B000C2F308020A80816A891C08E0026972B1BB
:1036C0000268526802F07F020A70816A491C8162B6
:1036D000C18D491E0904090CC18503D01BE0026895
:1036E0005268F1E70168CA6822F02002CA600168E6
:1036F000CA6822F48072CA6001684A6922F0010235
:103700004A61202180F8421000214163026B012AA6
:1037100003D0FFF7CFFC002008BD016301680C3126
:1037200051E8002F22F0100241E80023002BF5D1D0
:1037300001680A68D20602D50A6849680091818D3D
:10374000FFF7E9FAE7E7000070B504460068016991
:10375000E26821F44051114301612169A0680843E6
:10376000616908432168CA6841F20C639A430243C5
:10377000CA6020684169A26921F440711143416126
:103780001E492068884202D1FEF7FCFF01E0FEF7E7
:10379000E9FF00EBC00101EB0012606864218000CA
:1037A000B2FBF0F3B3FBF1F36FF018067343B2FB17
:1037B000F0F5B2FBF0F605EB8305322303EB0515BC
:1037C000B5FBF1F5B6FBF1F605F0F00505EB0615D6
:1037D000B2FBF0F6B2FBF0F0B0FBF1F06FF01802C4
:1037E000504306EB800003EB0010B0FBF1F02168C2
:1037F00000F00F002844886070BD000000380140D0
:103800000148FFF78FBA0000A0030020FEE749003F
:1038100050EAC12018BF04204A0D18BF40F0010033
:1038200040F2FF72B2EB515F08BF40F00200012886
:1038300008BF052070470907090E002804DB00F1C6
:10384000E02080F80014704700F00F0000F1E02045
:1038500080F8141D704730380A2801D201207047C3
:1038600000207047EFF30580002801D00120704749
:1038700000207047FEF7FEFDFFF70AFEFFF7A6FCEB
:10388000FFF764FCFFF7E6FCFFF704FDFFF774FCAD
:1038900000F00FF8FEE70021842800D0C11C084684
:1038A000704710B5002800D1012000F0F7FC00207F
:1038B00010BD10B500F042FD002010BD08B58268B3
:1038C000D0F800C04168002A07D0C3682BB100209F
:1038D0000090604600F02AFE08BDBDE808400022C6
:1038E000604600F001BE00002DE9F04184B00546BD
:1038F0000E46029600270197002E20D00397002441
:10390000B2F1FF3F25D002B11446FFF7ABFF010033
:1039100068464FF0100822D0011D03AA304601F07E
:1039200041F8012818D00097039810B318494FF0B8
:1039300080500860BFF34F8FBFF36F8F19E0802076
:103940000090029A0199AA606960286004B0BDE8FD
:10395000F0814FF0FF34D8E7CDF80080E4E7011D97
:103960002246304600F07AFF01280BD06CB140208F
:103970000090029A01990098AA606960286004B0DA
:10398000BDE8F081CDF80080F3E70020F0E700000B
:1039900004ED00E037B582B00546144600200190E2
:1039A000002C00D10124FFF75DFFA8B1002301AA7C
:1039B00003A9284600F0F2FE012802D005B0FF203E
:1039C00030BD019898B10B494FF080500860BFF3AB
:1039D0004F8FBFF36F8F0AE00023224603A92846CA
:1039E00000F024FE012802D005B0FF2030BD05B054
:1039F000002030BD04ED00E030B585B004460D4632
:103A00006169B4F90800002910D0A16971B1FFF70C
:103A100042FF6269A1690192029100902B462269DE
:103A20002168606801F082F8049010E0FFF733FF2E
:103A300004A901910090208A2B4682B22168606817
:103A400001F03EF8012802D005B0002030BD0498F6
:103A500005B030BD2DE9F04104460F46194EF5681A
:103A60003068001D00F022FB48B93068012190F851
:103A70002C0001FA00F0316921EA00003061B4F154
:103A8000FF3F07D137B13068BDE8F041011D0E4856
:103A900000F053BB2C4430684460AC4206D230681E
:103AA000011DB06BBDE8F04100F02CBB3068011D7A
:103AB000706B00F027FBB06A844200D2B462BDE8AC
:103AC000F08100002C0000205005002070B5044655
:103AD00000F040FB1C4DA868401CA860286810B18D
:103AE000686938B10CE02C60A868012808D100F0A2
:103AF00043F905E02868E16AC06A884200D82C6072
:103B0000686A401C6862E06A01212A6981401143A9
:103B100029610E4900EB800001EB8000211D00F0BF
:103B20000CFB00F037FB686900280CD02868E16ABC
:103B3000C06A884207D206494FF080500860BFF340
:103B40004F8FBFF36F8F70BD2C00002074040020D6
:103B500004ED00E070B50D4C6068002815D00C4EE7
:103B600000F0F8FAF068C568281D00F09FFAA06818
:103B7000401EA0606068401E606000F00BFB28469D
:103B800000F051F860680028EAD170BD2C000020D8
:103B90003C0500200B46026C002A0CD0C168114481
:103BA000C160D0F808C0614501D30168C160C16837
:103BB0001846FCF7C5BB70472DE9F0410446164690
:103BC0000027A56B226C002A10D0C6B1E068FCF774
:103BD000B7FBE168206C091AE1602268914202D2C9
:103BE000A168081AE060022E16D017E02068A8B974
:103BF000A06801F043F807460020A0600EE060686E
:103C0000FCF79EFB216C606808446060A1688842F4
:103C100004D32068606001E005B16D1E681CA063DC
:103C20003846BDE8F08110B5044694F851100029DB
:103C30000BD0012911D0022914D0502080F3118813
:103C4000BFF34F8FBFF36F8FFEE7206B00F0B8FA22
:103C50002046BDE8104000F0B3BA2046BDE8104051
:103C600000F0AEBA10BD00004FF44061104810F0F3
:103C7000070F06D0C01D20F007000D49411AC1F5FD
:103C800040610C4A1060002353600144083921F060
:103C90000701183A11604B600B600B1A436001601A
:103CA0004068906050604FF00040506170470000E5
:103CB0006405002080000020074E4FF08054074D1F
:103CC000FFF748FF30680128FAD92C60BFF34F8F07
:103CD000BFF36F8FF4E700007404002004ED00E0F0
:103CE00003460098002905D00260C36301640121E6
:103CF00000F054BC0060F8E72DE9F0478146099ECA
:103D0000089D0A9C9A46521E206B00EB820020F010
:103D10000708002700290CD0002023180A5C83F82C
:103D200034200A5C12B1401C1028F6D384F843708A
:103D300001E084F83470072D00D30625E562656440
:103D4000A764201D00F0DBF904F1180000F0D7F99A
:103D50002461C5F10700A0616462E76484F85070D3
:103D600052464946404600F053F92060002E00D0EC
:103D70003460BDE8F087000070B500240F4D04EBFF
:103D8000840005EB800000F0AFF9641C072CF6D32B
:103D90000B4800F0A9F90B4800F0A6F90A4800F01A
:103DA000A3F90A4800F0A0F9094800F09DF9094874
:103DB000034941631431816370BD00007404002025
:103DC0000005002014050020280500203C050020E7
:103DD000500500202C00002010B4144900E01146CA
:103DE0000A688242FBD34B6803EB010C844503D184
:103DF00040681844486008460C68D0F804C00CEBD2
:103E00000003A3420CD10A4B1B689A4206D05268A9
:103E1000624442600A681268026002E0036000E0E7
:103E20000260814200D0086010BC70478000002012
:103E30006800002010B5044600F08CF9A06B20B19A
:103E4000002400F0A7F9204610BD0124F9E710B5C1
:103E5000044600F07FF9A06BE16B884201D1012498
:103E600000E0002400F096F9204610BD0749486B99
:103E70000068002805D0486BC068C0684068886248
:103E800070474FF0FF308862704700002C00002020
:103E90000A484068B0F1FF3F07D0502080F31188F6
:103EA000BFF34F8FBFF36F8FFEE7502080F3118871
:103EB000BFF34F8FBFF36F8FFEE700008800002035
:103EC00070B5044600F046F994F94550002D0CDD1C
:103ED000606A50B104F1240000F01EFF08B100F048
:103EE0000DFA681E45B2002DF2DC4FF0FF3684F863
:103EF000456000F04FF900F02DF994F94450002D81
:103F00000CDD206950B104F1100000F005FF08B18C
:103F100000F0F4F9681E45B2002DF2DC84F844602C
:103F2000BDE8704000F036B92DE9F04105460026A5
:103F300000F048FA344F386808B9FFF795FE786901
:103F4000054251D19DB1083515F0070F0FD005F08E
:103F50000700C0F10800054415F0070F07D05020F6
:103F600080F31188BFF34F8FBFF36F8FFEE7002DF3
:103F70003AD07868854237D824490846046801E079
:103F8000214604466068A84202D220680028F7D182
:103F90003868844228D0086800F108062068086064
:103FA0006068411B10290FD9601910F0070F07D066
:103FB000502080F31188BFF34F8FBFF36F8FFEE760
:103FC00041606560FFF708FF61687868401A7860B3
:103FD000BA68904200D2B8607869084360600020F7
:103FE0002060F868401CF86000F0D2FE16F0070F61
:103FF00007D0502080F31188BFF34F8FBFF36F8F2E
:10400000FEE73046BDE8F081680000208000002017
:10401000001F4FF080730360001F21F00101016059
:10402000001F034901601438026020387047000007
:10403000913E00080FB4642170B51948FCF7F7F9F8
:1040400005AB64211648049AFCF760F904004FF0B0
:10405000000621D4642C01DB632401E0002C1BDD6D
:104060000020104D41F2883100E0401C2A780AB14E
:104070008842FAD3287800280ED10B48FEF74DFE6F
:10408000202809D101202870A2B205490648FFF76F
:1040900013F8002800D02E7070BC5DF814FB0000EF
:1040A0009400002000000020A00300200169436864
:1040B00082689A60836842685A604A68824201D185
:1040C00082684A60002202610868401E0860086831
:1040D00070470000034B036003F154000860802028
:1040E00010607047F800002000F1080141604FF0B7
:1040F000FF328260C16001610021016070470021D0
:104100000161704710B4D1F800C0BCF1FF3F02D08C
:1041100000F1080202E0026904E01A4653681C68D4
:104120006445FAD953684B6099608A6051600861B0
:104130000168491C016010BC704742684A6093687E
:104140008B6093685960916008610168491C016047
:1041500070470000502080F31188BFF34F8FBFF3EA
:104160006F8F0A494868401C486001280CD10848F4
:10417000006810F0FF0F07D0502080F31188BFF3C4
:104180004F8FBFF36F8FFEE770470000880000205D
:1041900004ED00E009494868002806D0401E486048
:1041A000002801D180F311887047502080F31188D6
:1041B000BFF34F8FBFF36F8FFEE700008800002032
:1041C00070B500282AD0A0F10804154D606869690F
:1041D000084207D1502080F31188BFF34F8FBFF3FF
:1041E0006F8FFEE722683AB1502080F31188BFF349
:1041F0004F8FBFF36F8FFEE78843606000F0E2F8F7
:1042000060686968084468602046FFF7E5FD286932
:10421000401C2861BDE8704000F0BABD70BD0000D0
:10422000680000204FF0E020002101618161054914
:104230004FF47A720968B1FBF2F1491E416107211E
:10424000016170472800002010B5FCF73BF81149C8
:1042500010280ED300F1E02090F8F0030A78904285
:1042600007D2502080F31188BFF34F8FBFF36F8FB9
:10427000FEE709480068896800F4E060884207D9D1
:10428000502080F31188BFF34F8FBFF36F8FFEE78D
:1042900010BD0000880000200CED00E010B50246C3
:1042A0000020002A12D00F48006B38B1502080F354
:1042B0001188BFF34F8FBFF36F8FFEE700F082F8D6
:1042C00000211046FFF7C6FB00F062FD002807D171
:1042D00005494FF080500860BFF34F8FBFF36F8FD9
:1042E00010BD00002C00002004ED00E002490A6A25
:1042F0000260C968416070472C000020014901201C
:10430000C86170472C00002010B50C4600280BD067
:10431000094A126802F11801FFF7F4FE2046BDE8D1
:1043200010400121FFF796BB502080F31188BFF3A6
:104330004F8FBFF36F8FFEE72C00002010B586B0C3
:1043400000240594049403AA04A905A8FFF7C2FE5B
:1043500005980499019102900023009415A1174833
:10436000039A00F0E3FB1649C86208B1012000E09F
:10437000002001280AD0B0F1FF3F19D1502080F36E
:104380001188BFF34F8FBFF36F8FFEE7502080F38C
:104390001188BFF34F8FBFF36F8F4FF0FF308862EC
:1043A00001204861CC6006B0BDE8104000F042B882
:1043B00006B010BD49444C4500000000B93C00085F
:1043C0002C0000200248016B491C0163704700006B
:1043D0002C000020154A106B002802D00120D0616B
:1043E00070470020D0611069B0FA80F0C0F11F0062
:1043F0000F4900EB800051F8203073B101EB8000D1
:1044000041684968416000F10803994201D1496857
:1044100041604068C06810607047502080F3118888
:10442000BFF34F8FBFF36F8FFEE700002C0000201B
:104430007404002010B582B0284908780190FF204C
:104440000870087800909DF800009DF8002000F0AA
:10445000F000904207D0502080F31188BFF34F8FB7
:10446000BFF36F8FFEE79DF800001D4C00F0500079
:1044700020700720A0609DF8000010F0800F0BD086
:10448000A068401EA0609DF80000400000909DF8CC
:10449000000010F0800FF3D1A068032807D050204F
:1044A00080F31188BFF34F8FBFF36F8FFEE74FF498
:1044B0004070A060019808700A48016841F47001DA
:1044C0000160016841F070410160FFF7ABFE002020
:1044D0006060FBF7C1FE02B0002010BD00E400E008
:1044E0008800002020ED00E0F8B505460E4617468E
:1044F000002D13D005FB06F04830FFF715FD0446EC
:1045000054B104F14802002084F846003B4631468D
:1045100028460094FFF7E4FB2046F8BD502080F3C6
:104520001188BFF34F8FBFF36F8FFEE738B5049D3F
:10453000002804D05BB102B189B1C2B120E05020A3
:1045400080F31188BFF34F8FBFF36F8FFEE75020CA
:1045500080F31188BFF34F8FBFF36F8FFEE75020BA
:1045600080F31188BFF34F8FBFF36F8FFEE739B130
:10457000502080F31188BFF34F8FBFF36F8FFEE79A
:104580004FF0480CCDF800C01C46012384F846309B
:104590002B460094FFF7A4FB204638BD70B50446B7
:1045A0000D46002C25D0FFF7D5FD226CE16B20686D
:1045B00001FB0200A0600020A06320686060E16B46
:1045C000226C2068491E01FB0200E0604FF0FF30C2
:1045D00084F8440084F845009DB104F11000FFF711
:1045E00083FD04F12400FFF77FFDFFF7D3FD0120D9
:1045F00070BD502080F31188BFF34F8FBFF36F8FD2
:10460000FEE720690028F0D004F1100000F084FBE0
:104610000028EAD004494FF080500860BFF34F8F64
:10462000BFF36F8FE1E7000004ED00E02DE9FF47E5
:1046300082B004468A461F460025002C03D0BAF1FA
:10464000000F08D011E0502080F31188BFF34F8F86
:10465000BFF36F8FFEE7206C38B1502080F31188D4
:10466000BFF34F8FBFF36F8FFEE7022F0AD1E06BCE
:10467000012807D0502080F31188BFF34F8FBFF37C
:104680006F8FFEE700F082FA48B9049838B15020E5
:1046900080F31188BFF34F8FBFF36F8FFEE70026C3
:1046A0004FF08058DFF8F090FFF754FDA06BE16BFE
:1046B000884205D3022F03D0049808B335B329E00C
:1046C0003A4651462046FFF777FA616A59B104F13C
:1046D000240000F021FB68B1C9F80080BFF34F8FC0
:1046E000BFF36F8F06E028B1C9F80080BFF34F8F8A
:1046F000BFF36F8FFFF74EFD06B00120BDE8F087D6
:10470000FFF748FD06B00020BDE8F0876846FFF7D8
:10471000EDFD0125FFF73EFDFFF754FEFFF71AFD03
:1047200094F94400B0F1FF3F01D184F8446094F95A
:104730004500B0F1FF3F01D184F84560FFF72AFD45
:1047400004A9684600F07CF940B12046FFF7B8FBA9
:1047500000F01EFB06B00020BDE8F0872046FFF702
:1047600076FB90B104F110000499FFF7CDFD2046CF
:10477000FFF7A6FB00F00CFB002895D1C9F80080DC
:10478000BFF34F8FBFF36F8F8EE72046FFF798FB85
:1047900000F0FEFA88E7000004ED00E02DE9F047A4
:1047A0000446894617461E46002C03D0B9F1000F77
:1047B00008D011E0502080F31188BFF34F8FBFF372
:1047C0006F8FFEE7206C38B1502080F31188BFF363
:1047D0004F8FBFF36F8FFEE7022E0AD1E06B0128E7
:1047E00007D0502080F31188BFF34F8FBFF36F8F36
:1047F000FEE7FFF729FD5020EFF3118880F31188C1
:10480000BFF34F8FBFF36F8FA06BE16B884206D36E
:10481000022E04D0002088F31188BDE8F08794F9B7
:104820004550A06B324649462046FFF7C5F9B5F121
:10483000FF3F04D0681C84F845000120EBE7606A64
:104840000028FAD004F1240000F066FA0028F4D021
:10485000002FF2D001203860EFE700002DE9F74784
:1048600083B004468A460025002C03D0BAF1000F1D
:1048700008D011E0502080F31188BFF34F8FBFF3B1
:104880006F8FFEE7206C38B1502080F31188BFF3A2
:104890004F8FBFF36F8FFEE700F078F948B90598A6
:1048A00038B1502080F31188BFF34F8FBFF36F8F63
:1048B000FEE700274FF08058DFF8E490FFF74AFC4E
:1048C000A66BC6B151462046FFF764F9701EA0637F
:1048D000206950B104F1100000F01EFA28B1C9F8A7
:1048E0000080BFF34F8FBFF36F8FFFF753FC06B00D
:1048F0000120BDE8F087059808B135B109E0FFF760
:1049000049FC06B00020BDE8F0876846FFF7EEFCE2
:104910000125FFF73FFCFFF755FDFFF71BFC94F95E
:104920004400B0F1FF3F01D184F8447094F9450090
:10493000B0F1FF3F01D184F84570FFF72BFC05A9CA
:10494000684600F07DF868B12046FFF7B9FA00F03C
:104950001FFA2046FFF76EFA0028AFD006B00020FD
:10496000BDE8F0872046FFF765FA90B104F1240016
:104970000599FFF7C9FC2046FFF7A2FA00F008FAF4
:1049800000289BD1C9F80080BFF34F8FBFF36F8F12
:1049900094E72046FFF794FA00F0FAF98EE700005A
:1049A00004ED00E02DE9F047044689461746002C47
:1049B00003D0B9F1000F08D011E0502080F3118826
:1049C000BFF34F8FBFF36F8FFEE7206C38B15020DD
:1049D00080F31188BFF34F8FBFF36F8FFEE7FFF7B0
:1049E00033FC5020EFF3118880F31188BFF34F8F11
:1049F000BFF36F8FA56BEDB194F944604946204633
:104A0000FFF7C8F8681EA063B6F1FF3F04D0701C22
:104A100084F8440001200EE020690028FAD004F157
:104A2000100000F079F90028F4D0002FF2D0012016
:104A30003860EFE7002088F31188BDE8F0870000B8
:104A400070B505460C46002D15D0E4B1FFF782FB8A
:104A5000DFF868C0DCF80C006B68C11A2268B2F19C
:104A6000FF3F18D02E68DCF820C0664515D0834281
:104A700013D801241DE0502080F31188BFF34F8F1D
:104A8000BFF36F8FFEE7502080F31188BFF34F8F85
:104A9000BFF36F8FFEE700240BE08A4206D9501A5D
:104AA00020602846FFF722FC002402E0002020605E
:104AB0000124FFF76FFB204670BD00002C00002092
:104AC0002DE9F04F85B081460F9F0E9E8A46904695
:104AD0009B464FEA8800FFF727FA054628000AD0D0
:104AE0005420FFF721FA04460CB1256304E0284660
:104AF000FFF766FB00E000249CB1002084F8510021
:104B000003905B4642465146019700960294484600
:104B1000FFF7F2F82046FEF7D9FF05B00120BDE807
:104B2000F08F05B04FF0FF30BDE8F08F70B586B064
:104B30000646DDF828C00C9C0B98002816D0ECB176
:104B4000542504952063022084F85100002005AD0F
:104B50000390CDF800C0019502943046FFF7CCF8E1
:104B60002046FEF7B3FF059806B070BD502080F3D5
:104B70001188BFF34F8FBFF36F8FFEE7502080F394
:104B80001188BFF34F8FBFF36F8FFEE70548416970
:104B9000002903D0006B18B1002070470120704736
:104BA000022070472C0000202DE9F0470026314FED
:104BB000386B002805D0B869401CB8613046BDE8A4
:104BC000F087F868451CFD609DB9786B006838B1C6
:104BD000502080F31188BFF34F8FBFF36F8FFEE734
:104BE000786BB96B7963B863386A401C3862FFF739
:104BF0003DF9B86ADFF8808085420FD34FF0010994
:104C0000786B006838B1786BC068C46860688542AA
:104C100012D2B86202E04FF0FF30B8623868C06A62
:104C200000EB800058F82000012800D90126F8691F
:104C30000028C3D00126C1E7201DFFF737FAA06A7C
:104C400018B104F11800FFF731FAE16A3A6909FA7C
:104C500001F01043386101EB810008EB8000211D59
:104C6000FFF76BFAE06A3968C96A8842C8D301263F
:104C7000C6E700002C0000207404002070B5044634
:104C80000021002841D0224D2868844207D05020BE
:104C900080F31188BFF34F8FBFF36F8FFEE7A06CD7
:104CA00038B1401EA064636CE26A9A422DD040B1D4
:104CB0002BE0502080F31188BFF34F8FBFF36F8F2D
:104CC000FEE7201DFFF7F2F91249012258B9E06A08
:104CD00000EB800351F823302BB92B6902FA00F066
:104CE00023EA00002861606CE062C0F10700A06167
:104CF000E06A2B6982401A432A6100EB800001EBD5
:104D00008000211DFFF719FA0121084670BD00003F
:104D10002C0000207404002070B5C068C468002C0A
:104D200014D004F11800FFF7C1F9164D286B0126C5
:104D3000A0B104F118011448FFF7FFF9E06A2968EF
:104D4000C96A88421CD90120EE6170BD502080F3F1
:104D50001188BFF34F8FBFF36F8FFEE7201DFFF762
:104D6000A5F9E06A2A6906FA00F1114329610749A9
:104D700000EB800001EB8000211DFFF7DEF9DDE78D
:104D8000002070BD2C0000202805002074040020A5
:104D90002DE9F0470024A0462D4D286B002807D0B0
:104DA000FFF7D8F9286B401E2863286B40B149E013
:104DB000502080F31188BFF34F8FBFF36F8FFEE752
:104DC000A86800283ED0234F3868012600B3A7F119
:104DD000B409F868C46804F11800FFF767F9201DEA
:104DE000FFF764F9E06A2A6906FA00F111432961C4
:104DF00000EB800009EB8000211DFFF79EF9E06ABF
:104E00002968C96A884200D3EE6138680028E0D179
:104E10000CB1FFF72BF8AC6944B1FFF7C5FE00B148
:104E2000EE61641E002CF8D10020A861E86948B149
:104E30004FF0010808494FF080500860BFF34F8FD2
:104E4000BFF36F8FFFF7A6F94046BDE8F08700007B
:104E50002C0000202805002004ED00E010B50029FA
:104E60000AD00878002807D005487844FCF750FBA2
:104E7000002801D0002010BD0248784410BD000079
:104E8000FE010000F601000010B500290AD00878E4
:104E9000002807D005487844FCF73AFB002801D0E9
:104EA000002010BD0248784410BD0000EE01000053
:104EB000E6010000FBF739BFFCF76EB88000000088
:104EC0000400000000000000000000002C5000085A
:104ED000A533000800000000000000008000000072
:104EE000000000000000000038500008F133000806
:104EF000FFFF000000000000800000000000000034
:104F000000000000010202030405060708090A0B5D
:104F10000C0D0E0F10100000000000000000010238
:104F20000304060708090000000001020304000052
:104F300000000000000000003031323334353637D5
:104F400038394142434445464030580030313233CD
:104F500034353637383961626364656640307800CD
:104F60000400000800000000000000020001000032
:104F70001030313233343536373839616263646525
:104F80006678700030313233343536373839414243
:104F9000434445465850000002400000000000A075
:104FA0000000000005400000000000C800000000F4
:104FB0000C4000000000409C000000001940000070
:104FC0000020BCBE0000000034400000BFC91B8EA2
:104FD00000000004B5400000504BCFD06607E2CF80
:104FE000010000006C4100003E8251AADFEEA734B0
:104FF00001000000D9420000DCB5A0E23A301F9762
:10500000FFFFFFFFB4450000FD25A0C8E9A3C14F85
:10501000FFFFFFFFFF3F00000000008000000000D6
:10502000FF3F000000000080000000005265616446
:10503000494F5461736B000053656E64556172741F
:105040005461736B000000009451000800000020C0
:105050009400000028010008285200089400002055
:1050600034170000440100081C0000004300000049
:10507000F8FFFFFF0C0000000E0000000F00000012
:105080002E0000001001000043000000F8FFFFFFA9
:10509000004040404040404040404141414141404B
:1050A0004040404040404040404040404040404000
:1050B000400502020202020202020202020202028F
:1050C0000220202020202020202020020202020294
:1050D00002029090909090901010101010101010EC
:1050E00010101010101010101010101002020202F8
:1050F000020288888888888808080808080808083C
:105100000808080808080808080808080202020237
:10511000400000000000000000000000000000004F
:10512000000000000000000000000000000000007F
:10513000000000000000000000000000000000006F
:10514000000000000000000000000000000000005F
:10515000000000000000000000000000000000004F
:10516000000000000000000000000000000000003F
:10517000000000000000000000000000000000002F
:10518000000000000000000000000000000000001F
:10519000000000000000000000000000000000000F
:1051A00000000000000000000000000000000000FF
:1051B00001000000100000000000000000127A0052
:1051C00000000000000000000000000000000000DF
:1051D00000000000000000000000000000000000CF
:1051E00000000000000000000000000000000000BF
:1051F00000000000000000000000000000000000AF
:10520000000000000000000000000000000000009E
:10521000000000000000000000000000000000008E
:08522000AAAAAAAA00000000DE
:04000005080000ED02
:00000001FF
